:100000006F30C05013000000130000001300000008
:100010001300000013000000130000001300000094
:100020001300000013000000130000001300000084
:08003000130000007300100032
:100038000000000000000000BA280000BE280000F0
:1000480000000000A43400000000000000000000D0
:10005800A6340000A83400000000000000000000E2
:10006800AA34000000000000AC34000000000000CA
:10007800AE340000B0340000B2340000B4340000E4
:10008800B6340000B8340000BA340000BC340000B4
:10009800BE340000C0340000C2340000C434000084
:1000A800C6340000C8340000CA340000CC34000054
:1000B800CE340000D0340000D2340000D434000024
:1000C8007A0B0000D8340000DA340000DC34000079
:1000D800DE340000E0340000E2340000E4340000C4
:1000E800E63400005C320000EA340000EC34000022
:1000F800EE340000F0340000F2340000F434000064
:10010800F6340000F8340000FA340000FC34000033
:10011800FE340000003500006E0B000004350000BE
:1001280006350000083500000A3500000000000010
:080138000000000000000000BF
:10014000397101436EC619A0397141536AC866CA34
:1001500062CC5ECE19A0397101535AD056D252D416
:100160004ED64AD826DA22DC06DE3301614082828E
:1001700041114AC026C222C406C68282B24D410144
:10018000024D924C224CB24B4101024B924A224A00
:10019000B2494101024992442244B2404101828065
:1001A0002A8309CA83830500230073007D16050393
:1001B00085056DFA828083A7C18137177A001307FE
:1001C0000720B3D7E70293F7F70F2387F1821307CE
:1001D000803EB387E7022396F1828280B7F700E082
:1001E000D843799BD8C303D7C1823306A70281467F
:1001F00090CBD4CB98431367070198C398431367F8
:10020000170298C3B7F700E0DC43858BE5DF37F7CB
:1002100000E01C43F99B1CC382805C45D9C33707AF
:100220000140930707408326074010411346F6FF1D
:10023000F18E2320D74003274740144193C6F6FF91
:10024000758FD8C358413E9714431041D18E14C3C3
:100250009847144193C6F6FF758F98C7D847144145
:1002600093C6F6FF758FD8C71C454147638CE700DE
:100270003707014013070740BA9798431441558F39
:1002800098C38280B707014003A787401441558F68
:1002900023A4E74003A7C7401441558F23A6E74096
:1002A00082805C413707014013070740BA979843A3
:1002B000144193C6F6FF758F98C38280B70701403B
:1002C00093870740DC4B7D8D11C105458280B707C0
:1002D000014023AAA7408280B707014023AAA74074
:1002E00082809C4593F8F700C18B81C7DC41B3E85D
:1002F000F800B72702409C5B3707000FF98F81E7B2
:100300000547A387E182B71701406309F50083C75A
:100310000500ADC703280500014721A883C7F18266
:10032000FDD783D70500B5832390F500CDB75CC911
:1003300005079D4763E2E7048547B397E70083D647
:100340000500FD8EE396D7FE13162700BD46B39633
:10035000C60093C6F6FF33F806013396C80033682B
:100360000601944513068002E383C6FC130680044D
:10037000E390C6FC1CC96DBF2320050103D705000F
:100380009307F00F63F1E70603284500014739A002
:100390009045930680046304D60405079D4763E2F5
:1003A000E704930687008547B397D70083D60500F7
:1003B000FD8EE394D7FE13162700BD46B396C60004
:1003C00093C6F6FF33F806013396C800336806017A
:1003D000904593068002E31DD6FA5CC955BF1CC93F
:1003E0006DBF232205018280B71701406306F50027
:1003F000084542054181828083C7F182F5DB0845CB
:10040000420541813605420541818280B71701408E
:100410006304F5004CC5828083C7F182E5DFB581B6
:10042000D5BF2A8663450502B7070140DC4337275D
:100430000240185BB706000F758F09EF93D61700BF
:100440007977F98E09677D17F98FD58F21A0B707C6
:100450000140DC4F135705013D8B93160501C18206
:100460006348060237083000B3780501638808073F
:100470003708100033780501630C08080D4833175E
:10048000E8001347F7FF7D8FB707000FD98F9DA0B6
:1004900037083000B3780501638F08013708100072
:1004A00033780501630108020D483317E80013474C
:1004B000F7FFF98F81A041070D483317E800134774
:1004C000F7FFF98F05A8135755011377F73F120768
:1004D0003397E6001347F7FFF98F29A8370700F194
:1004E0007D17F98FB708014003A848003377E8006B
:1004F00023A2E80081C955811375F53F1205B39613
:10050000A600D58F63420602370701405CC3828094
:100510001357550112073397E6001347F7FF7D8FF6
:10052000B707000FD98FF9B7370701405CCF82803A
:1005300093F635008A063D473317D70093F5C50F6C
:10054000B7070140AE9790471347F7FF718F98C7E1
:1005500098473315D500498F98C78280EFF25FC165
:1005600001112A84AE840359450042091359090137
:10057000137909FC42091359090168003D2ED2473D
:1005800037470F001307072433D7E7021316070175
:1005900041823369C9002312240183560400C20634
:1005A000C182F99AC206C1822310D4009440E16549
:1005B0009385056A63EFD5048606B3D7D702C207D1
:1005C000C1830D476363F7009147050642064182E8
:1005D0002310C402231EF4008357040093E717007E
:1005E0002310F40083570400C207C18393F757BF59
:1005F00003D7440083D6A400558FD98F2310F4006D
:1006000083D7C40003D78400D98F2314F400056175
:1006100051B683D5640031667D166389C50413968F
:10062000160036960E06B296B3D7D702C207C1831C
:100630009166D58FC207C1838566FD16FD8E99E24E
:1006400093E71700E176D58FC207C1834207418344
:100650009306C0123307D7029306803E3347D70272
:100660000507420741832310E402ADB71396160035
:10067000B296B3D7D702C207C1837DBF81C9835762
:10068000050093E717002310F500828083570500CB
:10069000C207C183F99BC207C1832310F500828082
:1006A0002318B5008280835745010357850142070F
:1006B000D98F370700017D17F98FED8F6384B7005D
:1006C0000145828005458280411102C602C42AC4C8
:1006D00093D7C5013EC6B7070001FD17FD8DB24790
:1006E00099CBA247D1073EC4A24788436D8D11C163
:1006F000054541018280C181A247E1073EC4EDB7B3
:1007000023A8A182828083A701839DEF83460500F1
:1007100083472500920793F7F70F37E700E03697F6
:100720002300F7405C41638E07140347050093578D
:1007300057008546B396E600938707048A0737E794
:1007400000E0BA9794C3828003A701838547630EB4
:10075000F70203A7018389476309F70603A701830B
:100760008D476302F70C03A701839147E31CF7FA57
:100770008346050083471500920793F7F70F37E785
:1007800000E036972300F74071BF03471500630F61
:10079000F7008346050083472500920793F7F70F7C
:1007A00037E700E036972300F740ADBF83460500EA
:1007B00083472500920793E707F893F7070F37E77A
:1007C00000E036972300F740B1BF83471500054787
:1007D0006378F70203472500F9178A0793F7F70FA5
:1007E000BA9793F7F70F83460500920793E707F848
:1007F00093F7070F37E700E036972300F7401DB760
:10080000034725008A0793F7F70FBA9793F7F70F77
:1008100083460500920793F7F70F37E700E0369716
:100820002300F74001B7834715000D476365F702C2
:1008300003472500860793F7F70FBA9793F7F70F4B
:1008400083460500920793F7F70F37E700E03697E6
:100850002300F740C1BD03472500F117860793F732
:10086000F70FBA9793F7F70F83460500920793E7C0
:1008700007F893F7070F37E700E036972300F740B4
:1008800055B503470500935757008546B396E600D4
:10089000938707068A0737E700E0BA9794C38280F8
:1008A000B7170240D843B70640FFFD16758FD8C36F
:1008B000D8435A05498FD8C38280B7170240DC431A
:1008C000B18B11476383E70821476386E70899C71F
:1008D000B7177A00938707201CC131A0B7177A0099
:1008E000938707201CC1371602405C429183BD8B61
:1008F0003707002013070700BA9783C607001C417B
:10090000B3D7D7005CC15442A1829D8ABA9683C6F0
:100910000600B3D6D70014C55442AD829D8A3697DF
:1009200003470700B3D7E7005CC5584239830D8BF6
:10093000B70600209386860F369703470700137784
:10094000F70FB3D7E7021CC98280B7177A009387E5
:1009500007201CC149BF371702405C435843C1669A
:10096000758FC983BD8B8907C5466381D7020DEB9F
:100970003747024003270780418B19CB37177A008E
:1009800013070720B387E7021CC1B1BFC947C5B72A
:1009900037173D0013070790B387E7021CC1A1B7C3
:1009A000371702405843B7060200758F09CB371737
:1009B0003D0013070790B387E7021CC12DB7371717
:1009C0007A0013070720B387E7021CC129BF99C526
:1009D000371702401C4FC98F1CCF82803717024047
:1009E0001C4F1345F5FFE98F1CCF828099C537173F
:1009F00002405C4FC98F5CCF8280371702405C4F4A
:100A00001345F5FFE98F5CCF828083570500C2074D
:100A1000C18337370140130707C06306E502370774
:100A200000406302E50213070740630EE500371735
:100A30000040130707806308E500371700401307DD
:100A400007C06317E50093F7F7F803D72500D98FA0
:100A500093F7F7CFC207C18303D76500D98F23105F
:100A6000F50083D745002316F50283D7050023142C
:100A7000F502B7370140938707C06306F500854745
:100A8000231AF500828083C785002318F502C5BFAD
:100A900081C98357050093E717002310F500828072
:100AA00083570500C207C183F99BC207C183231086
:100AB000F500828019C68357C500CD8F2316F50037
:100AC00082808357C50093C5F5FFFD8D2316B500C1
:100AD000828083570501ED8F0357C5006D8F81C755
:100AE00009E701458280014582800545828093C5E2
:100AF000F5FFC205C1812318B500828093F5F51F6B
:100B00002312B500828083570500ED8F99C30545F8
:100B1000828001458280EFF2AFE50945D536EFF0DE
:100B20008FE99305800337250600130505A8EF20FC
:100B3000A0421305401FEFF06FEAEF20804BEF203B
:100B4000C050EF20005783A5C18189679387077143
:100B5000B3D5F502FD15C205C1810545EF208038EA
:100B60000520EF10C05D7D28EF20C071F5BF37056F
:100B70000400EFF06FF6730020302524730020305E
:100B8000EFF20FDF03A7C181B747950893870740AE
:100B90006304F702B7E7B805938707806301F7029C
:100BA000B777DC02938707C0630EF70085453705EA
:100BB00080002D3D6FF00FDE0945DD31C5BF0545D5
:100BC000C531EDB70145E939D5B703C7E1841367EE
:100BD00027002387E18483C7E18493F7F70F0D474C
:100BE0006386E7000D4723AEE1848280EFF24FD8A1
:100BF000EF2010040D4723AEE1846FF0AFD983C717
:100C0000E18493F7D70F2387F1849387418C83C7BF
:100C1000A70089C7154723AEE1848280054723AE2C
:100C2000E1848280EFF2CFD4011137050400EFF0A8
:100C3000AFEAB70704003EC402C6C1473EC8054438
:100C400022CA2800EFF06FDD93074002230CF10069
:100C5000A30C8100230D010022CE28086D349307D8
:100C6000A003230CF100A30C01002808693C0561D6
:100C70006FF04FD2EFF2CFCFAA842E848545114575
:100C8000B933B1CCB766004083A706C44167751776
:100C9000F98F23A0F6C4B717014003A74780B71602
:100CA000F0FFFD16758F23A2E78003A7C780F976B2
:100CB0009386F67F758F23A6E78003A74780B74604
:100CC0000400558F23A2E78039CC374702408327A1
:100CD000078093E727002320F7806FF0AFCB3767BB
:100CE0000040832707C4C207C18393E7270023205E
:100CF000F7C4B717014003A74780B716F0FFFD16EA
:100D0000758F23A2E78003A7C780F9769386F67FC5
:100D1000758F23A6E78003A74780B7360300558F5A
:100D200023A2E78055B73747024083270780F59B0A
:100D30002320F7805DB7A38A01828280238A018203
:100D40008280EFF2EFC28547630AF5008947631698
:100D5000F50403C441830DC4054489A003C4518331
:100D600019C02A8425A813051008EF107032054712
:100D7000A38AE182930500030545EF10700B39A8A3
:100D800013052008EF10D0300547238AE182930530
:100D900000030945EF10D00911A0054422856FF02A
:100DA0006FBFEFF2EFBC0111B767004083A707C523
:100DB000C207C183373700201907BA9786079C43BB
:100DC0004167130707C0F98F03D741846382E702A5
:100DD000B767004083A707C5C207C183B7360020A5
:100DE0009906B69786079443137707C0558F98C323
:100DF000B767004083A747C4C207C1832391F1842A
:100E000083D7218403D7C18693F70720F98F99CF21
:100E1000B7660040C1679387F7DF23A2F6C483C794
:100E20000184850793F7F70F2380F18483D721840A
:100E3000E176F58F7D8F45EF03D7218483D7C18677
:100E400013770740F98F91CF37670040C1679387C9
:100E5000F7BF2322F7C4B70700209387470CDC4372
:100E6000829783D7218403D7C1868966F58FF98F4E
:100E700099C7B7660040B967FD1723A2F6C483D7A8
:100E800021848566F58F7D8F35E703D7218483D74D
:100E9000C186856693860680758FF98F81CF83A77B
:100EA0008181BDC3C52337670040BD679387F77F46
:100EB0002322F7C403D7218483D7C1861377071071
:100EC000F98F9DC337670040C1679387F7EF2322EF
:100ED000F7C4832787C413970701634B070223AE28
:100EE00001821D45EF00806805616FF0AFAAEF1029
:100EF000A02799B737670040BD67FD172322F7C4C5
:100F00000145EF00A06651B70945EF00206661BFBB
:100F100003A7C183050723AEE18203A7C1838D47E1
:100F2000E3F1E7FCB767004003A707C4218B55FB3B
:100F300083A707C4C207C18323ACF1823A860DA000
:100F400093162600B7670040938707C0B6979C4367
:100F5000C207C183938606028A9623A0F6FE050681
:100F60009D47E3FFC7FC83A6818393E6160023AC6D
:100F7000D18203A68183C166FD16758EB7650040D8
:100F800023A0C5C403A68183799A23ACC18283A719
:100F90008183F58F23A0F5C4B767004083A747C4BA
:100FA00093F70740F5DBB7660040C1679387F7BF4B
:100FB00023A2F6C40DA093172700938607028A96F2
:100FC00083A606FE37660040130606C0B297C20627
:100FD000C18294C305079D47E3FFE7FC23AE01826E
:100FE00009B79387418C83C7A70081C7154723AEF4
:100FF000E1848280114723AEE184828083C7E1844B
:1010000093E717002387F184828083C7E18493F7F5
:10101000E70F2387F18482808280828091E5854773
:1010200063E6A700014582800945828009458280E8
:1010300003A74187034617008347070093F7F70785
:1010400085466388D70093061002638FD702014557
:10105000828083472700930620026383D70293068A
:1010600010026391D708856793872743EFF24F906B
:10107000231907001CCF0145829701456FF08F911E
:10108000856793878740DDB78547630FF6048947F7
:101090006308F6028D47630EF602A5476318F6044F
:1010A00083576700854663E5F6042318F7008567D4
:1010B0009387C7151CCF8D472304F7000145828015
:1010C00085472318F7008567938747171CCF01458D
:1010D000828085472318F70085679387E7181CCF20
:1010E00001458280094582800145828009458280D0
:1010F0000945828083A7418783C5170003C657002F
:1011000003C707001377F707930610026304D7009D
:101110000145828029476381E5022D47639CE502F2
:101120000947636BC70203C73700938781843E96E4
:101130002300E600014582800947636BC70003C7AF
:1011400027009387C1843E962300E60001458280F4
:1011500009458280094582800945828083A74187AD
:1011600003C75700854763E5E700138541898280FF
:101170000145828083A7418703C55700894763E6FD
:10118000A7009387C1843E9582800145828083A712
:10119000418703C55700894763E6A7009387818489
:1011A0003E95828001458280EFE29FFC83A74187C4
:1011B00023850700652481470DA013972700B76694
:1011C0000040938606C03697144305661306F6F072
:1011D000F18E14C3850793F7F70F1D47E37FF7FCE4
:1011E000B76700401307F00F23A2E7C4EF10406871
:1011F00023AE018481450145B53C5145EFE01FFE1A
:1012000085450545853C6FE0FFF8EFE27FF683A753
:101210004187238507000D671307C76103477700E0
:10122000A384E700A38507000145EF10E03C930588
:1012300000200145EF10403DC1450145EF10403F02
:10124000930500040145EF10405193050008014546
:10125000EF10A04E0145EF106046B70700209387BE
:10126000470C83C5C7020145EF1000570145EF1039
:10127000E040B767004083A707C01167F98F99CF97
:10128000B766004083A706C005671307F7F0F98F1C
:10129000316713070708D98F23A0F6C0B76700404E
:1012A00083A707C093F7070499CFB766004083A7C9
:1012B00006C005671307F7F0F98F21671307070CBE
:1012C000D98F23A0F6C0930500600545EF10C03309
:1012D0009305000C0545EF104046930500020545B7
:1012E000EF100035B767004083A747C093F70704A6
:1012F00099CFB766004083A746C005671307F7F08C
:10130000F98F21671307070CD98F23A2F6C0B7679F
:10131000004083A747C01167F98F99CFB766004097
:1013200083A746C005671307F7F0F98F31671307E6
:101330000708D98F23A2F6C0930500600945EF1076
:10134000A02C9305000D0945EF10203F93050002E6
:101350000945EF10E02DB767004083A787C093F7DA
:10136000070499CFB766004083A786C005671307B7
:10137000F7F0F98F21671307070CD98F23A4F6C064
:10138000B767004083A787C01167F98F99CFB76609
:10139000004083A786C005671307F7F0F98F316710
:1013A00013070708D98F23A4F6C00145EF00104E9C
:1013B000054723AEE1846FE0FFDDEFE27FDB93853D
:1013C000C180EF0030386FE0FFDCEFE27FDAB70575
:1013D00000209385C50FEF00F0366FE0BFDB83A7D9
:1013E000418783C53700914763EEB700EFE25FD8CE
:1013F0008E05B707002093870708BE95EF0090344D
:101400006FE05FD90145828083A7418783C557007C
:10141000894763EEB700EFE2BFD58E05B70700201E
:1014200093870707BE95EF00F0316FE0BFD6014507
:10143000828083A7418783C55700894763EEB70041
:10144000EFE21FD38E05B707002093870706BE95EE
:10145000EF00502F6FE01FD401458280B767004036
:10146000054723A0E7C42396018623A007C423A22F
:1014700007C40967130707C02396E18623A0E7C4C2
:1014800001458280B767004083A507C4C205C181BA
:10149000014705A013162700B7670040938707C0D0
:1014A000B2979443C206C1829387418AB29794C38C
:1014B00005079D47E3F0E7FE13E70540B7670040E7
:1014C00023A0E7C413E7154023A0E7C4F9991395B7
:1014D0000501418193E5054023A0B7C4B7670040EB
:1014E00083A747C493F70740F5DB37670040C16720
:1014F0009387F7BF2322F7C4814605A013972600E0
:101500009387418ABA979C4337660040130606C00A
:101510003297C207C1831CC385069D47E3F0D7FEFF
:1015200093678540376700402320F7C4832707C4AB
:10153000C207C18393E747002320F7C46FF0EFE8A9
:10154000EFE21FC337640040832704C4C207C1838E
:10155000ED9BC207C1832320F4C4EFF04FEAB167CB
:10156000938707F02320F4C46FE0DFC29D47630434
:10157000F50023AAA18483A741851547636BF70C67
:10158000EFE21FBF8A070D6713074765BA979C43B1
:10159000828783A7018589C7154723AAE18429A8E3
:1015A0004537194723AAE18401A8593F114723AAC7
:1015B000E184054723A8E1846FE0DFBD938741857F
:1015C00009472382E7000D4798C3FDB793874185FC
:1015D00003C747007D171377F70F2382E70083C700
:1015E000470093F7F70FE9FB114723AAE184E9B716
:1015F00037670040832707C4C207C18393E7070109
:101600002320F7C493874185154798C32947238230
:10161000E7005DB79387418503C747007D171377C0
:10162000F70F2382E70083C7470093F7F70FC9F747
:1016300037670040832707C4C207C183BD9BC20729
:10164000C1832320F7C4194723AAE18423A8018476
:10165000A5B7194723AAE184828001CDEFE25FB1EB
:1016600083A781869C43829703A5418729056FE064
:101670007FB283A7418705472398E700828001CD89
:10168000EFE21FAF83A781869C47829703A541871E
:1016900031056FE03FB083A7418705472398E700F6
:1016A000828029C52392018603A7418783470700CB
:1016B00093F7F707A1EB8347970013F7070201C7DA
:1016C00089462382D18693F707049DC783C7418645
:1016D00093E717002382F186EFE29FA983A7818613
:1016E0009C4B8297138541866FE0DFAA83A74187D1
:1016F00009472398E700828083C74186F99B2382AC
:10170000F186D9BF8546638DD7048946639DD7048A
:10171000034757009377F700620761876342070228
:101720008A0737670040130707C0BA979C430D67C5
:10173000F98F0567E392E7FA05472382E18669BFDF
:101740008A0737670040130707C0BA979C4393F78F
:1017500007034147E392E7F805472382E186ADBFDF
:1017600013854186828001458280EFE2DF9E83A45B
:10177000418703D4040183C7840001E411476383D4
:10178000E70683D7440163EE870891496363F40059
:101790003E84420441809C4C228582972A890145DF
:1017A000EF00D07DAA8522864A85EF009060A28551
:1017B0000145EF10800083D70401818F2398F40046
:1017C00083D724013E942399840013070003239DAB
:1017D000E1860D67239EE18683A741872384370135
:1017E0006FE0BF9A03A7018685476307F70041476B
:1017F000239DE1869D49CDB7B767004083A707C504
:10180000C207C183373700200907BA97860723A08C
:10181000070013070003239DE18623A00186914959
:1018200065BF8949A5B7EFE2BF94411103A741877E
:101830008347170099466388D70689EF83562700A8
:1018400091EA544341761306F60FF18E37060200F3
:101850006388C608A1466380D712A946638FD71252
:1018600083A7018703A741879C4B034517008297F5
:101870008D47630CF51603A7418783560701C1679F
:10188000FD17638AF6168947630BF51663890616FA
:101890008307070063CB07168D472304F7000D6706
:1018A000239EE18685A28347070093F7F707CDFBC8
:1018B000834727000547638CE7000947638EE700ED
:1018C0000D47E39FE7F883A70187DC5321A083A797
:1018D0000187DC4FD5EB69B783A701879C53DDBF38
:1018E0008347070093F7F70789E783564700638A22
:1018F000060E85466383D7048946E393D7F683476C
:10190000570013F7F70013F60707E207E18763C9EB
:10191000070493172700B7660040938606C0B69762
:101920009C438D66F58F83C64181E37BD7F20DFA28
:1019300085DB85679387276A81A883A701879C4FEA
:101940008145034557008297E31C05F083A7418733
:1019500083C7A700E38607F085679387276A2DA0D2
:1019600093172700B7660040938606C0B6979C433E
:1019700093F707034DBF8347070093F7F707E391FA
:1019800007EE85679387A76503A74187231907009B
:101990001CCF014582970145F9BD8347070093F7A6
:1019A000F7078546E39ED7EA8347A700E38A07EA5D
:1019B00083572700E39607EA5C43C1769386F60FC8
:1019C000F58FC166E39ED7E883A701879C4F8145C9
:1019D000034557008297E31505E885679387E76716
:1019E00065B785679387276A45B783A741872547EA
:1019F0002384E70001A8A5472304F70021A0A147FD
:101A00002304F70041016FE0EFF8835767003EC6FB
:101A10003246637DD600B2472318F70083A70187BB
:101A200083C7C702231AF7008933E9BFE3F8F6FE3C
:101A300083A7018783C7C70263F5F60023A0018649
:101A4000F1BFB3E6F602F9FA854623A0D186F9B7CD
:101A5000EFE20FF203A44187035604011C4C9DCF13
:101A600015CE035744016363E6003A8693140601DA
:101A7000C180268582972A8983570401858F231880
:101A8000F40083572401A6972319F4000145EF00C1
:101A9000D050AA8526864A85EF003034835704014A
:101AA00091EF835704010357440163E5E70283A7DD
:101AB00041870D472384E7006FE0CFED0D67239E3C
:101AC000E18681450145EF00504F13070003239D38
:101AD000E186C1BF99C783A7418715472384E700E3
:101AE000E1BF83A7418719472384E700B767004018
:101AF00083A707C5C207C183373700200907BA97F4
:101B0000860723A0070013070003239DE1866DB716
:101B100003A74187834637009387418183C7170016
:101B200063E3D702834727008DE38357470085E3AC
:101B3000EFE20FE42305D70083A78186DC43829779
:101B400001456FE02FE509458280094582800945FE
:101B50008280EFE2EFE103A7018783A74187184F57
:101B600083C5370003C55700029783A7418703C782
:101B7000A70005CB2A8415E903C747000DEB83C7EF
:101B8000270085EB83A78186DC47829783A741875F
:101B900003C75700A385E70003C737002386E70084
:101BA00011A0094422856FE0EFDE0944E5BF094436
:101BB000D5BF0944C5BF83A7418703C50700137577
:101BC000F50711C50947630BE5000945828003C786
:101BD00097001377F7FDA384E700828003D72700DF
:101BE000631E071203C74700631A071203C7570093
:101BF0001376F7F762076187634E07049316260092
:101C0000B7650040938505C0AE9694428D65ED8E14
:101C100083C541816374B6106382061083C7A70031
:101C2000638E070EEFE2CFD463410704131426003E
:101C3000B7670040938707C03E941C400D67F98F3B
:101C40000567638CE70483A78186DC4B8297014597
:101C50006FE04FD493162600B7650040938505C00A
:101C6000AE96944293F6060365B79317260037673E
:101C70000040130707C0BA979C4393F707034147F7
:101C8000E393E7FC1374F60F2285EF0070289305A9
:101C900000032285EF00D0197DB721E6B7070020A9
:101CA0009387470C83C5C7023285EF00F03214409A
:101CB000C206C182F1779387F7F8FD8E8D67BD8EDE
:101CC000C206C182E17793870708DD8EC206C18212
:101CD00014C011A014C01C400D67F98FE39CE7FEEF
:101CE0009DB73285EF0030201440C206C182F177E3
:101CF0009387F7F8FD8E8D67BD8EC206C182E177AE
:101D000093870708DD8EC206C18214C011A014C0DB
:101D10001C400D67F98FE39CE7FE35B7828003A670
:101D20004187034756009377F7F76207618763445B
:101D3000070693962700B7650040938505C0AE96C9
:101D400094428D65ED8E83C5418163FEB70A83554C
:101D50002600C5EDCDCE8346A600C5CEEFE24FC12D
:101D6000634607048A0737670040130707C0BA971E
:101D70009443C206C18271771307F7F8F98E05679D
:101D8000B98EC206C182617713070708D98EC206D1
:101D9000C18294C3A1A893962700B765004093859C
:101DA00005C0AE96944293F6060371BF8A07376763
:101DB0000040130707C0BA979443C206C1826577F3
:101DC0001307F7FBF98E93C606016177130707081F
:101DD000D98EC206C18294C311A094C398431377CD
:101DE00007034146E31BC7FE01A894C398430D6651
:101DF000718F0566E31BC7FE83A781869C4F829780
:101E000001456FE02FB90945828009458280094567
:101E1000828009458280EFE2AFB503A741878347FF
:101E2000970093E70702A304F70083A78186DC4F9E
:101E3000829701456FE00FB6EFE28FB303A74187AA
:101E4000034417008347070093F7F707A5EBA5475F
:101E50006309F4029547630AF4028D476306F404AC
:101E600085476313F40683463700639FF604835760
:101E70004700B9EB8347970093F70702B1C7253BAB
:101E800019A0EFF0FFC831C981A08307370063CFE5
:101E9000070883472700C9EF83574700C1EF8347EF
:101EA000A700D9EB01450DA8834637008547639D00
:101EB000F6008357470089EBB93FF1B705476386C2
:101EC000E70409476389E70483A70187DC4B228580
:101ED00082978D476304F50625E5B767004083A721
:101EE00007C5C207C183373700200907BA9786079D
:101EF00023A0070013070003239DE186194783A74A
:101F000041872384E7006FE0EFA8AD47E31EF4FAB2
:101F1000EFF03FC48DBF85476307F4008D47E3159D
:101F2000F4FAF53B8DB7EFF01FC9B1BF2147C1BF30
:101F30002147F1B72147E1B72147D1B72547C1B7BD
:101F4000214775BF83A7418703D7270101C5884172
:101F50003A95828083D645003387E6402398E70090
:101F60008280EFE2EFA0B70700209387470C83C57C
:101F7000C7020145EF00500683A7418703C58700CC
:101F8000A1476307F5005D15133515006FE08FA0BD
:101F90000567239EE1864147239DE186EDB7EFE289
:101FA0002F9D37660040832706C541677D17F98F4F
:101FB000B73600209106B69786078043798C0604D1
:101FC000329483A7418783C687002547639EE60036
:101FD00083A7418705472384E70083D76700B1E7DC
:101FE000A13D41376FE00F9B034704002380E700CA
:101FF00083A7418703471400A380E70003A9418713
:1020000003554400EF0010062311A90003A94187DE
:1020100003558400EF0010052312A90083A7418710
:102020000357C4002393E70065B7EFF0CFFF55BF18
:10203000EFE20F9483A7418783C787000947638D29
:10204000E70211476382E7040D47638AE7001547FB
:102050006387E7001D47638BE700214739A8EFF04E
:102060003F9F83A7418703C7870001A883A70187F4
:10207000DC478297214711A0214783A7418723840A
:10208000E700C5356FE00F912147C5BF03C8418107
:10209000814635A093F5F60F13972500B7670040EA
:1020A000938707C03E971C4305661306F6F0F18F31
:1020B000216613060608D18FCD8F1CC38506E3EB7E
:1020C00006FD13650508B767004023A6A7C48280F4
:1020D000EFE20F8A03A74187834787008946638A17
:1020E000D70091466387D70099466381D70221477D
:1020F00039A0EFF08FE783A7418703C7870083A745
:1021000041872384E700B13D6FE0CF888346170005
:1021100095476388F60083A701879C4782972147EC
:10212000F9BF8347070093F7F707F5F70345370033
:10213000B13F83A781869C538297F1BF82809387AA
:10214000418C23AAF18609472384E700B7070020C2
:102150009387470C23A8F186370700201307070A47
:1021600023A4E1869C438287EFE28F8041112317ED
:102170000100F5A037670040832607C0C206C18270
:10218000239ED18683D6C18793F60603239DD186ED
:1021900083D6C1870D66F18E239ED186832707C023
:1021A000A5669386F6FBF58F832607C03166130676
:1021B000F6F8F18E0966B18E93C7070213960701F0
:1021C0004182B367D600A16593850508CD8F232092
:1021D000F7C019A8E17793870708D18FC207C18399
:1021E000376700402320F7C0B767004083A707C0C8
:1021F00093F7070313070002E39EE7FC31A89397C8
:102200000601C183617713070708D98FC207C1830D
:10221000376700402320F7C0B767004083A707C097
:102220000D67F98F0967E39CE7FC83D72184C18B95
:10223000DDCBB767004083A707C0C207C183231760
:10224000F1008357E100056713070780F98F639E4C
:1022500007168357E100C207C18763CA0724B7671F
:10226000004083A747C493960701C1822391D1847C
:10227000C207C18763D8071483D72184BD8B238C01
:10228000F186E38907EE13972700B766004093862F
:1022900006C036971443C206C1822317D100835665
:1022A000E100C206C18663C6062E8357E10093F79C
:1022B0000708D5D783C7818713972700B7660040E3
:1022C000938606C03697144325661306F6F0F18E02
:1022D00014C3FD17370700208A0713074704BA976E
:1022E0009C438297ADBF37640040832704C0A56438
:1022F0001387F4F0F98F2320F4C0D93B832704C05F
:102300009384F4FBE58F032604C031671307F7F8C5
:10231000798E03D7C1878566758F19C30567398E96
:1023200003D7C1878966758F19C30967398E03D7AB
:10233000A187418B19C393C7070103D7A1871377DF
:10234000070219C393C7070293960701C182B3E737
:10235000C600216713070708D98F3767004023207D
:10236000F7C019A8E17793870708D58FC207C18303
:10237000376700402320F7C0B767004003A707C0B6
:1023800083D7A187C207C18313770703E31CF7FC38
:1023900031A893170601C183617713070708D98F06
:1023A000C207C183376700402320F7C0B7670040EA
:1023B00003A707C083D7C187C207C1838D66758F06
:1023C000E319F7FC41016FD0FFDC3764004083273D
:1023D00004C005671307F7F8F98F2320F4C0EFF066
:1023E0001FBC832704C025671307F7FBF98F03265B
:1023F00004C031671307F7F8798E03D7C187856664
:10240000758F19C30567398E03D7C1878966758FA4
:1024100019C30967398E03D7A187418B19C393C7A5
:10242000070103D7A1871377070219C393C70702D0
:1024300093960701C182B3E7C60021671307070817
:10244000D98F376700402320F7C019A8E177938719
:102450000708D58FC207C183376700402320F7C024
:10246000B767004003A707C083D7A187C207C1830E
:1024700013770703E31CF7FC31A893170601C18308
:10248000617713070708D98FC207C18337670040F8
:102490002320F7C0B767004003A707C083D7C187D1
:1024A000C207C1838D66758FE319F7FC21BF3764BE
:1024B0000040832704C005671307F7F8F98F23202E
:1024C000F4C0EFF0FFB6832704C025671307F7FBBE
:1024D000F98F032604C031671307F7F8798E03D705
:1024E000C1878566758F19C30567398E03D7C18784
:1024F0008966758F19C30967398E03D7A187418B08
:1025000019C393C7070103D7A1871377070219C31C
:1025100093C7070293960701C182B3E7C6002167FC
:1025200013070708D98F376700402320F7C019A881
:10253000E17793870708D58FC207C18337670040CB
:102540002320F7C0B767004083A707C003D7A18740
:102550004207418393F70703E31CF7FC31A8931765
:102560000601C183617713070708D98FC207C183AA
:10257000376700402320F7C0B767004003A707C0B4
:1025800083D7C187C207C1838D66758FE319F7FCB6
:1025900015BD144305661306F6F8F18E14C3FD1736
:1025A000370700208A0713078702BA979C43829750
:1025B000EDB905060586B7370020BE95860521A82A
:1025C0000347050083471500A207D98F2390F50024
:1025D000910509057D166DF6828005060586B737DB
:1025E0000020BE95860539A09C412310F500090501
:1025F0007D16910575FA8280619942054181B76720
:10260000004023A8A7C482800A05B76700409387CB
:1026100007C03E951C41C207C18765771307F7982D
:10262000F98FC207C187DD8DC205C1810CC18280CF
:102630000A05B7670040938707C03E9518414207D7
:102640004183E5779387F7FB7D8F93F7050199C366
:102650001347070193F7050299C313470702E17770
:10266000938707085D8F4207418318C111A018C1E5
:102670001C4193F70703E39CB7FE82800A05B76706
:102680000040938707C03E951441C206C182F1778E
:102690009387F7F8FD8E8D67BD8EC206C182E17704
:1026A00093870708DD8EC206C18214C111A014C130
:1026B0001C410D67F98FE39CE7FE82800A05B7672E
:1026C0000040938707C03E951C41C207C18705673C
:1026D0001307F7E0F98F617713070708D98FC2074F
:1026E000C1831CC182800A05B7670040938707C079
:1026F0003E951C411167F98F99CB1C410567130763
:10270000F7F0F98F316713070708D98F1CC1828052
:102710000A05B7670040938707C03E951C4193F7B1
:10272000070499CB1C4105671307F7F0F98F216760
:102730001307070CD98F1CC18280B767004083A79D
:1027400007C5C207C1830E05AA9737370020BA977D
:102750008607858186058CC38280B767004083A782
:1027600007C5C207C1830E05AA9737370020110796
:10277000BA978607858186058CC38280B76700403B
:1027800083A707C5C207C1830E05AA973737002064
:10279000BA97860703D507008280B767004083A7F2
:1027A00007C5C207C1830E05AA9737370020110756
:1027B000BA97860703D507008280B767004083A7D2
:1027C00007C5C207C1830E05AA973737002009073E
:1027D000BA9786078CC38280B767004083A707C576
:1027E000C207C18313173500BA973737002019077E
:1027F000BA9786071307E0036375B70413D755002C
:10280000FD8981E57D17420741832A07A166558F1F
:1028100098C321E9B70700209387470C83C7C702F5
:102820001307E0036377F70213D75700FD8B81E7A7
:102830007D17420741832A07E1775D8F2392E18468
:10284000828013D71500858991C105072A0798C38F
:10285000C9B713D71700858B91C305072A072392A1
:10286000E18482809377F50F2181A2075D8D8280BC
:1028700037670040232207C4F177938707F0239638
:10288000F186B167938707F02320F7C40145828062
:10289000EFD21F8E2E8932849374F5072685F93D79
:1028A000AA854204418022864A85EFF09FD0A28506
:1028B0002685213701456FD0FF8D7300203001A0A0
:1028C000374702408327078093E707012320F780DB
:1028D000B7170240D843D8C3D843D8C3D8431367E7
:1028E0000740D8C3D843B706C1FFFD16758FD8C3BC
:1028F000D843B7061000558FD8C39843B7060001D8
:10290000558F98C3B71702409C4337070002F98FD1
:10291000F5DBB7170240D843719BD8C3D843136780
:102920002700D8C3B7170240DC43B18B2147E39B94
:10293000E7FE828071B7B71702409843136717000C
:1029400098C3D843B706FFF8758FD8C39843B70626
:10295000F7FEFD16758F98C39843B706FCFFFD166A
:10296000758F98C3D843B70681FFFD16758FD8C3FE
:1029700037079F0098C77DBF4CC93308D60079A898
:102980000CC901000100010001000100010001006B
:10299000010001000100010001004CC9010001001B
:1029A000010001000100010001000100010001001F
:1029B000010001000100010001000100860793F7FA
:1029C000F70F05079D4663CAE60493968701E186E3
:1029D000E3D806FA0CC90100010001000100010062
:1029E00001000100010001000100010001000100DF
:1029F00001000100010001000100010001000100CF
:102A000001000100010001000100010001000100BE
:102A10000100010001004CC955B705066306060117
:102A200083470600014779BF4CC982809387018E96
:102A30002380B700A380A7002381C700A94613867F
:102A4000018E8545371501401305054035B793873D
:102A5000018E03C7B700B94763E0E7029387018E91
:102A60007D57A385E700A9461386018E8545371556
:102A700001401305054009B79387018EA385070020
:102A8000DDB72A879377050491C385478607937638
:102A9000070299C293E71700860793F7F70F93761B
:102AA000870099C293E71700860713F5F70F13778E
:102AB000070819C31365150082808D6793162500DA
:102AC00093870771B697AE9703C507002300A6004A
:102AD00009ED8D6793870772B697BE9583C705008A
:102AE0002300F60081E709458280054582809387AF
:102AF000318E2380A700A380A7002381A700A38194
:102B0000A7002382A700A382A7002383A700A38393
:102B1000A700A9461386018E854537150140130588
:102B200005406FF07FE5EFD2AFE483C7E18799C737
:102B30000145753F238F01866FD0CFE51305F00F58
:102B40007D370547238FE186C5BFEFD26FE201CD08
:102B500085476307F50289476301F5048D47630BD9
:102B6000F5046FD02FE3814537140140130504802D
:102B7000EFD0DF898945130504C0EFD03F89D5B771
:102B800081453714014013050480EFD03F88854507
:102B9000130504C0EFD09F87E9B78945371401407A
:102BA00013050480EFD09F868145130504C0EFD044
:102BB000FF8545BF85453714014013050480EFD0DC
:102BC000FF848145130504C0EFD05F8459BFEFD265
:102BD0002FDA368485E129C283C7F187138727005E
:102BE00036972300A7001547636CF7008507A38F6E
:102BF000F18639A001CA83C70600C98F2380F60079
:102C00006FD04FD983C706001345F5FF6205618574
:102C1000E98F2380F600EDB789471D47636CF70005
:102C20003307F400034707006306A700850793F7FF
:102C3000F70FE5B72147639BE700A302040083C7B2
:102C4000F187DDDFFD17A38FF1865DBF9385170048
:102C50001D461D8EA2953305F400EFD06FD4A3035B
:102C60000400F1BFEFD22FCF2A84AE848347050042
:102C700093F7070A1307000A638FE704AA86014641
:102C8000814513059003A1378348040003481400CD
:102C90000345240083453400034644008346540022
:102CA000034764008347740023801401A380040158
:102CB0002381A400A381B4002382C400A382D40092
:102CC0002383E400A383F40093978801E18763C220
:102CD000071A6FD08FCBAA8605468145130590034E
:102CE000FD35EFF0DFD64DB71307300E6391E702E5
:102CF000014681450145EFF07FD3930514001D4641
:102D0000018EA6954A85EFD0AFC9A38304000504C0
:102D10001374F40F9D4763E08716A28933898400FA
:102D20008347090013072005E360F7FC1307A0029F
:102D3000E3EFE7FC938767FD93F6F70F1307800235
:102D4000E367D7FC939726000D671307C766BA970A
:102D50009C438287014681451305F00FEFF01FCD9C
:102D6000930514001D46018EA6954A85EFD04FC3EA
:102D7000A383040069BF01469305C0021305F00F49
:102D8000EFF0DFCA930514001D46018EA6954A8513
:102D9000EFD00FC1A38304009DBF01469305F00F40
:102DA0001305F00FEFF09FC8930514001D46018E28
:102DB000A6954A85EFD0CFBEA383040089BF014604
:102DC0009305F00F0145EFF07FC6930514001D46F3
:102DD000018EA6954A85EFD0AFBCA383040005BF42
:102DE0001306F00F81450145EFF05FC49305140011
:102DF0001D46018EA6954A85EFD08FBAA3830400A5
:102E000039B713060008814513050008EFF01FC20B
:102E1000930514001D46018EA6954A85EFD04FB844
:102E2000A3830400EDB5EFF01FD0930514001D46F9
:102E3000018EA6954A85EFD0AFB6A3830400C1BD2D
:102E40009307C0042300F900D9B59307A004230019
:102E5000F90075BD9307D0042300F9004DBD930719
:102E6000B0042300F90065B59307E0042300F900DE
:102E700079BD094445B583C7040093F7F70723805C
:102E8000F40081BDEFD2CFAEAA8429440DC0A6853F
:102E90003755004013050540EFD01F8301E9514528
:102EA000EFD0CFB37D141374F40FCDB70544228552
:102EB0006FD04FAEEFD2CFABAA8429440DC0A68508
:102EC0003755004013050540EFD0EFFD01E95145AE
:102ED000EFD0CFB07D141374F40FCDB70544228525
:102EE0006FD04FABEFD2CFA80111AA842E8402CAB3
:102EF00002CC231E010002C602C885450945EFD059
:102F0000FFAE231C9100231A8100231D0100231B07
:102F100001004C083704004013050440EFD0FFAE19
:102F20000546854513050440EFD0DFB89307D0026E
:102F30002306F1008547A306F10009472307E100B6
:102F40003EC86800EFD02FFC854513050440EFD044
:102F50003FB405616FD00FA4EFD2EF9F0111AA8497
:102F60002E8402CA02CC02CE02C202C402C602C829
:102F700085452545EFD0BFA5854537052000EFD015
:102F8000FFA693070004231AF100714A52CE8D491F
:102F90004ECC4C0837190140130509C0EFD06FB46F
:102FA00093070008231AF10052CE4ECC4C081305AB
:102FB00009C0EFD00FB326C2231401009167231577
:102FC000F100060423168100130700402317E100D7
:102FD0002318F1004C003754004013050440EFD093
:102FE000EFD7854513050440EFD04FE905616FD059
:102FF000CF99EFD2EF97411185450545EFD03F9D21
:10300000854513050002EFD09F9C85452165EFD0D3
:103010004FC102C202C402C685472312F100C14754
:103020003EC689473EC44C00371501401305054094
:10303000EFD02FAB9387018E23A0070023A20700B8
:103040002394070041016FD0EF94EFD26F924111AA
:1030500002C202C402C685451305D002EFD03F97D5
:103060009307800E2312F100930780023EC60D44A1
:1030700022C44C00B714014013850480EFD06FA622
:103080002312810041494AC622C44C0013850480A2
:10309000EFD02FA5231281004AC622C44C0013850D
:1030A00004C0EFD00FA40145EFF03FAA41016FD05B
:1030B0006F8EEFD2EF8B411102C002C202C402C672
:1030C00085450545EFD0BF9085450D45EFD04FC6EE
:1030D00089473EC011494AC2214422C4854426C6BC
:1030E0000A85EFD08F938D450145EFD06FC422C084
:1030F0004AC222C426C60A85EFD02F9291450145C7
:10310000EFD00FC3C1473EC04AC222C426C60A85BB
:10311000EFD0AF9095450545EFD08FC1954501455E
:10312000EFD00FC1930700023EC04AC222C426C698
:103130000A85EFD08F8E99450145EFD06FBF930779
:1031400000043EC04AC222C426C60A85EFD0EF8CD6
:103150009D450145EFD0CFBD930700083EC04AC250
:1031600022C426C60A85EFD04F8BA5450145EFD076
:103170002FBC930700203EC04AC222C426C60A853F
:10318000EFD0AF89370701408327074093E7A72F88
:103190002320F74041016FC0FFFFEFC27FFD83D7BF
:1031A00021898507C207C1832399F188294733F70D
:1031B000E70219C71547B3F7E702ADCB6FC09FFD14
:1031C000239901883719014013050980EFD0CFA159
:1031D0002A84130509C0EFD02FA1AA841305094042
:1031E000EFD08FA02A86A6852285EFF09F8983C71E
:1031F00011896305F50203C5018905050D89238839
:10320000A188EFF09F9483C70189CDFB03A7C188F4
:1032100023A2E18205472380E18A4DB703C70189D4
:103220009386C18836972300F700F1B7371901401C
:1032300013050980EFD04F9B2A84130509C0EFD0F6
:10324000AF9AAA8413050940EFD00F9A2A86A68563
:103250002285EFF01F83A388A1888DB785453705A8
:10326000004013050540EFD0DF8619E173002030E0
:1032700085453705004013050540EFD05F87EFF027
:10328000DFF1EDB7EFC23FED411183C7018A93F73C
:10329000F70F91CB2380018A114693850182138514
:1032A0004182C52C45E983C7018863970710B7059C
:1032B000020089053755004013050540EFD0AFBE29
:1032C0006316051641016FC05FEC05041374F40F1B
:1032D0008D4763EC870493874182CA9783C70700B1
:1032E000138701824A9703470700A289B98FB3D792
:1032F0008740858BF9DB1306F100A2852685EFF068
:10330000CFFB8947E303F5FC93874182CA9703C645
:1033100007008547B3978700938681897D8EAA85AC
:103320000345F100EFF0BF8A4DB7850493F4F40F25
:103330008D4763E39702268993874182A69703C747
:10334000070093870182A69783C70700E30FF7FC66
:103350000144BDBF8144E9BF03A7418223A0E182AC
:103360009385418813858189EFF0DF8F054723809E
:10337000E18815BF9305000437450040130505405B
:10338000EFD06FF865D993874188A29783C507006E
:103390003745004013050540EFD04FF60504137480
:1033A000F40F9D47E3F887FC03A7C18595476307A2
:1033B000F70023800188E5BD0144E5B721469385E8
:1033C00041880545EFD0FF97EDB713050040EFF0BA
:1033D0007FAE39C105041374F40F9D4763EE870275
:1033E0003705001013050508EFF0DFA915C5938711
:1033F0004188A29783C50700375500401305054053
:10340000EFD00FAA9947E3E287FC370506001305C2
:103410004508EFF03FAA5DFDB757004083D607404F
:1034200003D70740758F2390E74069BD014475B706
:10343000EFC21FD41305A02FEFC07FE9B7F700E05C
:1034400083A607D103A707D11367870223A8E7D074
:1034500003A707D11377F7FD93F60602558F23A82C
:10346000E7D003A707D11367870023A8E7D073002D
:10347000501003A707D11367870023A8E7D0730074
:1034800050101305A02FEFC07FE319E16FC09FD04C
:103490001305A02FEFC0BFE30545EFE02F8DFDB76B
:1034A00001A001A001A001A001A001A001A001A014
:1034B00001A001A001A001A001A001A001A001A004
:1034C00001A001A001A001A001A001A001A001A0F4
:1034D00001A001A001A001A001A001A001A001A0E4
:1034E00001A001A001A001A001A001A001A001A0D4
:1034F00001A001A001A001A001A001A001A001A0C4
:1035000001A001A001A001A001A001A097D1FF1F6F
:103510009381C13E17F1FF1F1301C12E1705000053
:103520001305452197D5FF1F9385C5AD1386C1822D
:1035300063FAC5008322050023A0550011059105FB
:10354000E3EAC5FE1385C1829385C18E6377B5001A
:10355000232005001105E36DB5FEFD42739002BC0A
:103560008D42739042809302800873A0023097D2FC
:10357000FFFF9382A2AC93E2320073905230EFF0DF
:103580008FBB97D2FFFF938242597390123473001E
:10359000203001476314E60001458280B307E5004F
:1035A0000507B386E50083C7070083C6F6FFE383FC
:1035B000D7FE3385D740828005010906A1010507A2
:1035C00019E029E71500250175019508810295018B
:1035D00075088101950375010508190129039102F8
:1035E0009505750191019506750826FF00050719D7
:1035F0000029918100C0000012034C0061006E00A0
:103600006100000000000000000000000E03460002
:10361000720069003300440000000000090222002B
:10362000010100A032090400000103010100092189
:1036300011010001223E000705810308000A000075
:103640001201100100000040861A00FE0001010274
:103650000001000092150000AA150000BC15000032
:10366000CC150000F015000014160000402E0000DC
:103670000E2D0000262E00000E2D00000E2D000045
:103680000E2D00000E2D00000E2D00000E2D00004E
:103690000E2D00000E2D00000E2D00000E2D00003E
:1036A0000E2D00000E2D00000E2D0000542D0000E8
:1036B000762D00009A2D0000BE2D0000E02D0000A8
:1036C000022E00000E2D00000E2D00000E2D000019
:1036D0000E2D00000E2D00000E2D00000E2D0000FE
:1036E0000E2D00000E2D00000E2D00000E2D0000EE
:1036F0000E2D00000E2D00000E2D00000E2D0000DE
:10370000542E00004A2E0000682E00005E2E00009D
:1037100000000000000000000000000000000000A9
:10372000291E271C3A1F2D183B202E0C3C212B1242
:103730000000000001020304010203040607080957
:1037400016033000310032003300340035003600FB
:1037500037003800390000003C2100003C21000007
:103760003C2100003C2100003C2100003C210000E5
:103770003C210000360D00003C0D00003C21000003
:103780003C2100003C2100003C2100003C210000C5
:103790002E36000009000000473600000900000036
:1037A000B83500003E0000000000000000000000EE
:1037B00020010020040000000C3600000E00000074
:1037C000F835000012000000100000201600000074
:1037D0003C210000E20F00003C2100003C210000E1
:1037E0003C2100000A1000003C210000FC0F0000FA
:1037F000F40F0000A81100000A12000018100000C9
:103800001A10000030100000F41000001C1000001E
:10381000BA130000CA130000DE130000000000000D
:103820004000000000000000020406081C360000F2
:1038300022000000403600001200000003010000DA
:1038400001000000006CDC02FFFFFFFFFFFFFFFF35
:043850000403090460
:00000001FF
